{
  "_format": "hh-sol-artifact-1",
  "contractName": "CollectionAdmin",
  "sourceName": "contracts/CollectionAdmin.sol",
  "abi": [
    {
      "inputs": [],
      "stateMutability": "nonpayable",
      "type": "constructor"
    },
    {
      "anonymous": false,
      "inputs": [
        {
          "indexed": false,
          "internalType": "address",
          "name": "msgSender",
          "type": "address"
        },
        {
          "indexed": false,
          "internalType": "address",
          "name": "collection",
          "type": "address"
        },
        {
          "indexed": false,
          "internalType": "uint256",
          "name": "itemId",
          "type": "uint256"
        }
      ],
      "name": "Eswap",
      "type": "event"
    },
    {
      "anonymous": false,
      "inputs": [
        {
          "indexed": true,
          "internalType": "bytes32",
          "name": "role",
          "type": "bytes32"
        },
        {
          "indexed": true,
          "internalType": "bytes32",
          "name": "previousAdminRole",
          "type": "bytes32"
        },
        {
          "indexed": true,
          "internalType": "bytes32",
          "name": "newAdminRole",
          "type": "bytes32"
        }
      ],
      "name": "RoleAdminChanged",
      "type": "event"
    },
    {
      "anonymous": false,
      "inputs": [
        {
          "indexed": true,
          "internalType": "bytes32",
          "name": "role",
          "type": "bytes32"
        },
        {
          "indexed": true,
          "internalType": "address",
          "name": "account",
          "type": "address"
        },
        {
          "indexed": true,
          "internalType": "address",
          "name": "sender",
          "type": "address"
        }
      ],
      "name": "RoleGranted",
      "type": "event"
    },
    {
      "anonymous": false,
      "inputs": [
        {
          "indexed": true,
          "internalType": "bytes32",
          "name": "role",
          "type": "bytes32"
        },
        {
          "indexed": true,
          "internalType": "address",
          "name": "account",
          "type": "address"
        },
        {
          "indexed": true,
          "internalType": "address",
          "name": "sender",
          "type": "address"
        }
      ],
      "name": "RoleRevoked",
      "type": "event"
    },
    {
      "anonymous": false,
      "inputs": [
        {
          "indexed": false,
          "internalType": "string",
          "name": "tag",
          "type": "string"
        },
        {
          "indexed": false,
          "internalType": "uint256",
          "name": "itemId",
          "type": "uint256"
        }
      ],
      "name": "TagUint",
      "type": "event"
    },
    {
      "inputs": [],
      "name": "ADMIN_ROLE",
      "outputs": [
        {
          "internalType": "bytes32",
          "name": "",
          "type": "bytes32"
        }
      ],
      "stateMutability": "view",
      "type": "function"
    },
    {
      "inputs": [],
      "name": "DEFAULT_ADMIN_ROLE",
      "outputs": [
        {
          "internalType": "bytes32",
          "name": "",
          "type": "bytes32"
        }
      ],
      "stateMutability": "view",
      "type": "function"
    },
    {
      "inputs": [
        {
          "internalType": "address",
          "name": "_address",
          "type": "address"
        }
      ],
      "name": "addCollection",
      "outputs": [],
      "stateMutability": "nonpayable",
      "type": "function"
    },
    {
      "inputs": [
        {
          "internalType": "address",
          "name": "_address",
          "type": "address"
        }
      ],
      "name": "checkCollection",
      "outputs": [
        {
          "internalType": "bool",
          "name": "",
          "type": "bool"
        }
      ],
      "stateMutability": "view",
      "type": "function"
    },
    {
      "inputs": [
        {
          "internalType": "uint256",
          "name": "",
          "type": "uint256"
        }
      ],
      "name": "collection",
      "outputs": [
        {
          "internalType": "contract MyCollection",
          "name": "",
          "type": "address"
        }
      ],
      "stateMutability": "view",
      "type": "function"
    },
    {
      "inputs": [],
      "name": "collectionLength",
      "outputs": [
        {
          "internalType": "uint256",
          "name": "",
          "type": "uint256"
        }
      ],
      "stateMutability": "view",
      "type": "function"
    },
    {
      "inputs": [
        {
          "internalType": "bytes32",
          "name": "role",
          "type": "bytes32"
        }
      ],
      "name": "getRoleAdmin",
      "outputs": [
        {
          "internalType": "bytes32",
          "name": "",
          "type": "bytes32"
        }
      ],
      "stateMutability": "view",
      "type": "function"
    },
    {
      "inputs": [
        {
          "internalType": "bytes32",
          "name": "role",
          "type": "bytes32"
        },
        {
          "internalType": "address",
          "name": "account",
          "type": "address"
        }
      ],
      "name": "grantRole",
      "outputs": [],
      "stateMutability": "nonpayable",
      "type": "function"
    },
    {
      "inputs": [
        {
          "internalType": "bytes32",
          "name": "role",
          "type": "bytes32"
        },
        {
          "internalType": "address",
          "name": "account",
          "type": "address"
        }
      ],
      "name": "hasRole",
      "outputs": [
        {
          "internalType": "bool",
          "name": "",
          "type": "bool"
        }
      ],
      "stateMutability": "view",
      "type": "function"
    },
    {
      "inputs": [],
      "name": "owner",
      "outputs": [
        {
          "internalType": "address",
          "name": "",
          "type": "address"
        }
      ],
      "stateMutability": "view",
      "type": "function"
    },
    {
      "inputs": [
        {
          "internalType": "address",
          "name": "_address",
          "type": "address"
        }
      ],
      "name": "removeCollection",
      "outputs": [],
      "stateMutability": "nonpayable",
      "type": "function"
    },
    {
      "inputs": [
        {
          "internalType": "bytes32",
          "name": "role",
          "type": "bytes32"
        },
        {
          "internalType": "address",
          "name": "account",
          "type": "address"
        }
      ],
      "name": "renounceRole",
      "outputs": [],
      "stateMutability": "nonpayable",
      "type": "function"
    },
    {
      "inputs": [
        {
          "internalType": "bytes32",
          "name": "role",
          "type": "bytes32"
        },
        {
          "internalType": "address",
          "name": "account",
          "type": "address"
        }
      ],
      "name": "revokeRole",
      "outputs": [],
      "stateMutability": "nonpayable",
      "type": "function"
    },
    {
      "inputs": [
        {
          "internalType": "bytes4",
          "name": "interfaceId",
          "type": "bytes4"
        }
      ],
      "name": "supportsInterface",
      "outputs": [
        {
          "internalType": "bool",
          "name": "",
          "type": "bool"
        }
      ],
      "stateMutability": "view",
      "type": "function"
    },
    {
      "inputs": [
        {
          "internalType": "address",
          "name": "_address",
          "type": "address"
        },
        {
          "internalType": "uint256",
          "name": "_itemId",
          "type": "uint256"
        }
      ],
      "name": "swap",
      "outputs": [],
      "stateMutability": "nonpayable",
      "type": "function"
    }
  ],
  "bytecode": "0x608060405234801561001057600080fd5b50600180546001600160a01b03191633908117909155610051907fa49807205ce4d355092ef5a8a18f56e8913cf4a201fbe287825b095693c2177590610056565b6100f5565b6000828152602081815260408083206001600160a01b038516845290915290205460ff166100f1576000828152602081815260408083206001600160a01b03851684529091529020805460ff191660011790556100b03390565b6001600160a01b0316816001600160a01b0316837f2f8788117e7eff1d82e926ec794901d17c78024a50270940304540a733656f0d60405160405180910390a45b5050565b610e9c806101046000396000f3fe608060405234801561001057600080fd5b50600436106100f55760003560e01c806391d1485411610097578063d004f0f711610066578063d004f0f714610221578063d547741f14610234578063ece8e52f14610247578063f07723771461024f57600080fd5b806391d14854146101e0578063a174e77a146101f3578063a217fddf14610206578063caf5b6c41461020e57600080fd5b806336568abe116100d357806336568abe146101685780635028d05a1461017b57806375b238fc1461018e5780638da5cb5b146101b557600080fd5b806301ffc9a7146100fa578063248a9ca3146101225780632f2ff15d14610153575b600080fd5b61010d610108366004610bc8565b610262565b60405190151581526020015b60405180910390f35b610145610130366004610bf2565b60009081526020819052604090206001015490565b604051908152602001610119565b610166610161366004610c20565b610299565b005b610166610176366004610c20565b6102c3565b610166610189366004610c50565b610346565b6101457fa49807205ce4d355092ef5a8a18f56e8913cf4a201fbe287825b095693c2177581565b6001546101c8906001600160a01b031681565b6040516001600160a01b039091168152602001610119565b61010d6101ee366004610c20565b610505565b610166610201366004610c50565b61052e565b610145600081565b61010d61021c366004610c50565b610661565b61016661022f366004610c6d565b6106cb565b610166610242366004610c20565b610811565b600254610145565b6101c861025d366004610bf2565b610836565b60006001600160e01b03198216637965db0b60e01b148061029357506301ffc9a760e01b6001600160e01b03198316145b92915050565b6000828152602081905260409020600101546102b481610860565b6102be838361086d565b505050565b6001600160a01b03811633146103385760405162461bcd60e51b815260206004820152602f60248201527f416363657373436f6e74726f6c3a2063616e206f6e6c792072656e6f756e636560448201526e103937b632b9903337b91039b2b63360891b60648201526084015b60405180910390fd5b61034282826108f1565b5050565b7fa49807205ce4d355092ef5a8a18f56e8913cf4a201fbe287825b095693c2177561037081610860565b61037982610661565b6103c55760405162461bcd60e51b815260206004820152601a60248201527f436f6c6c656374696f6e20646f6573206e6f7420657869737473000000000000604482015260640161032f565b60006103d083610956565b60028054919250906103e490600190610caf565b815481106103f4576103f4610cc6565b600091825260209091200154600280546001600160a01b03909216918390811061042057610420610cc6565b9060005260206000200160006101000a8154816001600160a01b0302191690836001600160a01b03160217905550600280548061045f5761045f610cdc565b600082815260209020810160001990810180546001600160a01b03191690550190556040517fb5c8bb00b9da39d1d0854b8767ae24e57c51a48a0c18f33eec18abba52a4dc66906104f890839060408082526024908201527f6e657720636f6c6c656374696f6e2072656d6f7665642066726f6d20706f73696060820152633a34b7b760e11b6080820152602081019190915260a00190565b60405180910390a1505050565b6000918252602082815260408084206001600160a01b0393909316845291905290205460ff1690565b7fa49807205ce4d355092ef5a8a18f56e8913cf4a201fbe287825b095693c2177561055881610860565b61056182610661565b156105ae5760405162461bcd60e51b815260206004820152601960248201527f636f6c6c656374696f6e20616c72656164792065786973747300000000000000604482015260640161032f565b6002805460018101825560008290527f405787fa12a823e0f2b7631cc41b3ba8828b3321ca811111fa75cd3aa3bb5ace0180546001600160a01b0319166001600160a01b038516179055546040805181815260209181018290527f6e657720636f6c6c656374696f6e206164646564206f6e20706f736974696f6e60608201529081019190915282907fb5c8bb00b9da39d1d0854b8767ae24e57c51a48a0c18f33eec18abba52a4dc66906080016104f8565b6000805b6002548110156106c257826001600160a01b03166002828154811061068c5761068c610cc6565b6000918252602090912001546001600160a01b031614156106b05750600192915050565b806106ba81610cf2565b915050610665565b50600092915050565b6106d482610661565b15610342576040516331a9108f60e11b81526004810182905282906001600160a01b03821690636352211e9060240160206040518083038186803b15801561071b57600080fd5b505afa15801561072f573d6000803e3d6000fd5b505050506040513d601f19601f820116820180604052508101906107539190610d0d565b6001600160a01b0316336001600160a01b03161461077057600080fd5b604051630ac791df60e11b8152600481018390526001600160a01b0382169063158f23be90602401600060405180830381600087803b1580156107b257600080fd5b505af11580156107c6573d6000803e3d6000fd5b5050604080513381526001600160a01b03871660208201529081018590527fabfa30a4ac28939ebdcf9d69b1abf1cada3aa9e1d3177a769455b2dde00d6376925060600190506104f8565b60008281526020819052604090206001015461082c81610860565b6102be83836108f1565b6002818154811061084657600080fd5b6000918252602090912001546001600160a01b0316905081565b61086a81336109ba565b50565b6108778282610505565b610342576000828152602081815260408083206001600160a01b03851684529091529020805460ff191660011790556108ad3390565b6001600160a01b0316816001600160a01b0316837f2f8788117e7eff1d82e926ec794901d17c78024a50270940304540a733656f0d60405160405180910390a45050565b6108fb8282610505565b15610342576000828152602081815260408083206001600160a01b0385168085529252808320805460ff1916905551339285917ff6391f5c32d9c69d2a47ea670b442974b53935d1edc7fd64eb21e047a839171b9190a45050565b6000805b6002548110156109b457826001600160a01b03166002828154811061098157610981610cc6565b6000918252602090912001546001600160a01b031614156109a25792915050565b806109ac81610cf2565b91505061095a565b50919050565b6109c48282610505565b610342576109d181610a13565b6109dc836020610a25565b6040516020016109ed929190610d5a565b60408051601f198184030181529082905262461bcd60e51b825261032f91600401610dcf565b60606102936001600160a01b03831660145b60606000610a34836002610e02565b610a3f906002610e21565b67ffffffffffffffff811115610a5757610a57610e39565b6040519080825280601f01601f191660200182016040528015610a81576020820181803683370190505b509050600360fc1b81600081518110610a9c57610a9c610cc6565b60200101906001600160f81b031916908160001a905350600f60fb1b81600181518110610acb57610acb610cc6565b60200101906001600160f81b031916908160001a9053506000610aef846002610e02565b610afa906001610e21565b90505b6001811115610b72576f181899199a1a9b1b9c1cb0b131b232b360811b85600f1660108110610b2e57610b2e610cc6565b1a60f81b828281518110610b4457610b44610cc6565b60200101906001600160f81b031916908160001a90535060049490941c93610b6b81610e4f565b9050610afd565b508315610bc15760405162461bcd60e51b815260206004820181905260248201527f537472696e67733a20686578206c656e67746820696e73756666696369656e74604482015260640161032f565b9392505050565b600060208284031215610bda57600080fd5b81356001600160e01b031981168114610bc157600080fd5b600060208284031215610c0457600080fd5b5035919050565b6001600160a01b038116811461086a57600080fd5b60008060408385031215610c3357600080fd5b823591506020830135610c4581610c0b565b809150509250929050565b600060208284031215610c6257600080fd5b8135610bc181610c0b565b60008060408385031215610c8057600080fd5b8235610c8b81610c0b565b946020939093013593505050565b634e487b7160e01b600052601160045260246000fd5b600082821015610cc157610cc1610c99565b500390565b634e487b7160e01b600052603260045260246000fd5b634e487b7160e01b600052603160045260246000fd5b6000600019821415610d0657610d06610c99565b5060010190565b600060208284031215610d1f57600080fd5b8151610bc181610c0b565b60005b83811015610d45578181015183820152602001610d2d565b83811115610d54576000848401525b50505050565b7f416363657373436f6e74726f6c3a206163636f756e7420000000000000000000815260008351610d92816017850160208801610d2a565b7001034b99036b4b9b9b4b733903937b6329607d1b6017918401918201528351610dc3816028840160208801610d2a565b01602801949350505050565b6020815260008251806020840152610dee816040850160208701610d2a565b601f01601f19169190910160400192915050565b6000816000190483118215151615610e1c57610e1c610c99565b500290565b60008219821115610e3457610e34610c99565b500190565b634e487b7160e01b600052604160045260246000fd5b600081610e5e57610e5e610c99565b50600019019056fea264697066735822122034d4719441e46b8a661f57038e0476c67251e75b0f83be9854881a10bfa7645364736f6c63430008090033",
  "linkReferences": {},
  "deployedLinkReferences": {}
}