{
  "_format": "hh-sol-artifact-1",
  "contractName": "MyCollection",
  "sourceName": "contracts/MyCollection.sol",
  "abi": [
    {
      "inputs": [
        {
          "internalType": "string",
          "name": "_name",
          "type": "string"
        },
        {
          "internalType": "string",
          "name": "_symbol",
          "type": "string"
        }
      ],
      "stateMutability": "nonpayable",
      "type": "constructor"
    },
    {
      "anonymous": false,
      "inputs": [
        {
          "indexed": true,
          "internalType": "address",
          "name": "owner",
          "type": "address"
        },
        {
          "indexed": true,
          "internalType": "address",
          "name": "approved",
          "type": "address"
        },
        {
          "indexed": true,
          "internalType": "uint256",
          "name": "tokenId",
          "type": "uint256"
        }
      ],
      "name": "Approval",
      "type": "event"
    },
    {
      "anonymous": false,
      "inputs": [
        {
          "indexed": true,
          "internalType": "address",
          "name": "owner",
          "type": "address"
        },
        {
          "indexed": true,
          "internalType": "address",
          "name": "operator",
          "type": "address"
        },
        {
          "indexed": false,
          "internalType": "bool",
          "name": "approved",
          "type": "bool"
        }
      ],
      "name": "ApprovalForAll",
      "type": "event"
    },
    {
      "anonymous": false,
      "inputs": [
        {
          "indexed": true,
          "internalType": "address",
          "name": "from",
          "type": "address"
        },
        {
          "indexed": true,
          "internalType": "address",
          "name": "to",
          "type": "address"
        },
        {
          "indexed": true,
          "internalType": "uint256",
          "name": "tokenId",
          "type": "uint256"
        }
      ],
      "name": "Transfer",
      "type": "event"
    },
    {
      "inputs": [
        {
          "internalType": "address",
          "name": "to",
          "type": "address"
        },
        {
          "internalType": "uint256",
          "name": "tokenId",
          "type": "uint256"
        }
      ],
      "name": "approve",
      "outputs": [],
      "stateMutability": "nonpayable",
      "type": "function"
    },
    {
      "inputs": [
        {
          "internalType": "address",
          "name": "owner",
          "type": "address"
        }
      ],
      "name": "balanceOf",
      "outputs": [
        {
          "internalType": "uint256",
          "name": "",
          "type": "uint256"
        }
      ],
      "stateMutability": "view",
      "type": "function"
    },
    {
      "inputs": [],
      "name": "baseTokenURI",
      "outputs": [
        {
          "internalType": "string",
          "name": "",
          "type": "string"
        }
      ],
      "stateMutability": "view",
      "type": "function"
    },
    {
      "inputs": [
        {
          "internalType": "uint256",
          "name": "tokenId",
          "type": "uint256"
        }
      ],
      "name": "burn",
      "outputs": [],
      "stateMutability": "nonpayable",
      "type": "function"
    },
    {
      "inputs": [
        {
          "internalType": "uint256",
          "name": "tokenId",
          "type": "uint256"
        }
      ],
      "name": "burnoutside",
      "outputs": [],
      "stateMutability": "nonpayable",
      "type": "function"
    },
    {
      "inputs": [
        {
          "internalType": "uint256",
          "name": "tokenId",
          "type": "uint256"
        }
      ],
      "name": "getApproved",
      "outputs": [
        {
          "internalType": "address",
          "name": "",
          "type": "address"
        }
      ],
      "stateMutability": "view",
      "type": "function"
    },
    {
      "inputs": [
        {
          "internalType": "address",
          "name": "owner",
          "type": "address"
        },
        {
          "internalType": "address",
          "name": "operator",
          "type": "address"
        }
      ],
      "name": "isApprovedForAll",
      "outputs": [
        {
          "internalType": "bool",
          "name": "",
          "type": "bool"
        }
      ],
      "stateMutability": "view",
      "type": "function"
    },
    {
      "inputs": [],
      "name": "lastTokenID",
      "outputs": [
        {
          "internalType": "uint256",
          "name": "",
          "type": "uint256"
        }
      ],
      "stateMutability": "view",
      "type": "function"
    },
    {
      "inputs": [],
      "name": "mint",
      "outputs": [],
      "stateMutability": "nonpayable",
      "type": "function"
    },
    {
      "inputs": [],
      "name": "name",
      "outputs": [
        {
          "internalType": "string",
          "name": "",
          "type": "string"
        }
      ],
      "stateMutability": "view",
      "type": "function"
    },
    {
      "inputs": [],
      "name": "owner",
      "outputs": [
        {
          "internalType": "address",
          "name": "",
          "type": "address"
        }
      ],
      "stateMutability": "view",
      "type": "function"
    },
    {
      "inputs": [
        {
          "internalType": "uint256",
          "name": "tokenId",
          "type": "uint256"
        }
      ],
      "name": "ownerOf",
      "outputs": [
        {
          "internalType": "address",
          "name": "",
          "type": "address"
        }
      ],
      "stateMutability": "view",
      "type": "function"
    },
    {
      "inputs": [
        {
          "internalType": "address",
          "name": "from",
          "type": "address"
        },
        {
          "internalType": "address",
          "name": "to",
          "type": "address"
        },
        {
          "internalType": "uint256",
          "name": "tokenId",
          "type": "uint256"
        }
      ],
      "name": "safeTransferFrom",
      "outputs": [],
      "stateMutability": "nonpayable",
      "type": "function"
    },
    {
      "inputs": [
        {
          "internalType": "address",
          "name": "from",
          "type": "address"
        },
        {
          "internalType": "address",
          "name": "to",
          "type": "address"
        },
        {
          "internalType": "uint256",
          "name": "tokenId",
          "type": "uint256"
        },
        {
          "internalType": "bytes",
          "name": "data",
          "type": "bytes"
        }
      ],
      "name": "safeTransferFrom",
      "outputs": [],
      "stateMutability": "nonpayable",
      "type": "function"
    },
    {
      "inputs": [
        {
          "internalType": "address",
          "name": "operator",
          "type": "address"
        },
        {
          "internalType": "bool",
          "name": "approved",
          "type": "bool"
        }
      ],
      "name": "setApprovalForAll",
      "outputs": [],
      "stateMutability": "nonpayable",
      "type": "function"
    },
    {
      "inputs": [
        {
          "internalType": "bytes4",
          "name": "interfaceId",
          "type": "bytes4"
        }
      ],
      "name": "supportsInterface",
      "outputs": [
        {
          "internalType": "bool",
          "name": "",
          "type": "bool"
        }
      ],
      "stateMutability": "view",
      "type": "function"
    },
    {
      "inputs": [],
      "name": "symbol",
      "outputs": [
        {
          "internalType": "string",
          "name": "",
          "type": "string"
        }
      ],
      "stateMutability": "view",
      "type": "function"
    },
    {
      "inputs": [
        {
          "internalType": "uint256",
          "name": "tokenId",
          "type": "uint256"
        }
      ],
      "name": "tokenURI",
      "outputs": [
        {
          "internalType": "string",
          "name": "",
          "type": "string"
        }
      ],
      "stateMutability": "view",
      "type": "function"
    },
    {
      "inputs": [
        {
          "internalType": "address",
          "name": "from",
          "type": "address"
        },
        {
          "internalType": "address",
          "name": "to",
          "type": "address"
        },
        {
          "internalType": "uint256",
          "name": "tokenId",
          "type": "uint256"
        }
      ],
      "name": "transferFrom",
      "outputs": [],
      "stateMutability": "nonpayable",
      "type": "function"
    }
  ],
  "bytecode": "0x608060405260006008553480156200001657600080fd5b50604051620018fb380380620018fb833981016040819052620000399162000240565b81518290829062000052906000906020850190620000cd565b50805162000068906001906020840190620000cd565b50506040805180820190915260158082527f68747470733a2f2f7777772f6d657461646174612f00000000000000000000006020909201918252620000b2925060069190620000cd565b5050600980546001600160a01b0319163317905550620002e7565b828054620000db90620002aa565b90600052602060002090601f016020900481019282620000ff57600085556200014a565b82601f106200011a57805160ff19168380011785556200014a565b828001600101855582156200014a579182015b828111156200014a5782518255916020019190600101906200012d565b50620001589291506200015c565b5090565b5b808211156200015857600081556001016200015d565b634e487b7160e01b600052604160045260246000fd5b600082601f8301126200019b57600080fd5b81516001600160401b0380821115620001b857620001b862000173565b604051601f8301601f19908116603f01168101908282118183101715620001e357620001e362000173565b816040528381526020925086838588010111156200020057600080fd5b600091505b8382101562000224578582018301518183018401529082019062000205565b83821115620002365760008385830101525b9695505050505050565b600080604083850312156200025457600080fd5b82516001600160401b03808211156200026c57600080fd5b6200027a8683870162000189565b935060208501519150808211156200029157600080fd5b50620002a08582860162000189565b9150509250929050565b600181811c90821680620002bf57607f821691505b60208210811415620002e157634e487b7160e01b600052602260045260246000fd5b50919050565b61160480620002f76000396000f3fe608060405234801561001057600080fd5b50600436106101215760003560e01c806342966c68116100ad578063a22cb46511610071578063a22cb4651461024f578063b88d4fde14610262578063c87b56dd14610275578063d547cfb714610288578063e985e9c51461029057600080fd5b806342966c68146101fb5780636352211e1461020e57806370a08231146102215780638da5cb5b1461023457806395d89b411461024757600080fd5b80631249c58b116100f45780631249c58b146101a3578063158f23be146101ab57806323b872dd146101be5780633521bd7e146101d157806342842e0e146101e857600080fd5b806301ffc9a71461012657806306fdde031461014e578063081812fc14610163578063095ea7b31461018e575b600080fd5b610139610134366004611142565b6102cc565b60405190151581526020015b60405180910390f35b61015661031e565b60405161014591906111b7565b6101766101713660046111ca565b6103b0565b6040516001600160a01b039091168152602001610145565b6101a161019c3660046111ff565b6103d7565b005b6101a16104f2565b6101a16101b93660046111ca565b61051c565b6101a16101cc366004611229565b610528565b6101da60085481565b604051908152602001610145565b6101a16101f6366004611229565b61055a565b6101a16102093660046111ca565b610575565b61017661021c3660046111ca565b61059a565b6101da61022f366004611265565b6105fa565b600954610176906001600160a01b031681565b610156610680565b6101a161025d366004611280565b61068f565b6101a16102703660046112d2565b61069e565b6101566102833660046111ca565b6106d6565b61015661073d565b61013961029e3660046113ae565b6001600160a01b03918216600090815260056020908152604080832093909416825291909152205460ff1690565b60006001600160e01b031982166380ac58cd60e01b14806102fd57506001600160e01b03198216635b5e139f60e01b145b8061031857506301ffc9a760e01b6001600160e01b03198316145b92915050565b60606000805461032d906113e1565b80601f0160208091040260200160405190810160405280929190818152602001828054610359906113e1565b80156103a65780601f1061037b576101008083540402835291602001916103a6565b820191906000526020600020905b81548152906001019060200180831161038957829003601f168201915b5050505050905090565b60006103bb826107cb565b506000908152600460205260409020546001600160a01b031690565b60006103e28261059a565b9050806001600160a01b0316836001600160a01b031614156104555760405162461bcd60e51b815260206004820152602160248201527f4552433732313a20617070726f76616c20746f2063757272656e74206f776e656044820152603960f91b60648201526084015b60405180910390fd5b336001600160a01b03821614806104715750610471813361029e565b6104e35760405162461bcd60e51b815260206004820152603d60248201527f4552433732313a20617070726f76652063616c6c6572206973206e6f7420746f60448201527f6b656e206f776e6572206f7220617070726f76656420666f7220616c6c000000606482015260840161044c565b6104ed838361082a565b505050565b610500600780546001019055565b600061050b60075490565b90506105173382610898565b600855565b610525816108b2565b50565b610533335b82610955565b61054f5760405162461bcd60e51b815260040161044c9061141c565b6104ed8383836109d4565b6104ed8383836040518060200160405280600081525061069e565b61057e3361052d565b61051c5760405162461bcd60e51b815260040161044c9061141c565b6000818152600260205260408120546001600160a01b0316806103185760405162461bcd60e51b8152602060048201526018602482015277115490cdcc8c4e881a5b9d985b1a59081d1bdad95b88125160421b604482015260640161044c565b60006001600160a01b0382166106645760405162461bcd60e51b815260206004820152602960248201527f4552433732313a2061646472657373207a65726f206973206e6f7420612076616044820152683634b21037bbb732b960b91b606482015260840161044c565b506001600160a01b031660009081526003602052604090205490565b60606001805461032d906113e1565b61069a338383610b45565b5050565b6106a83383610955565b6106c45760405162461bcd60e51b815260040161044c9061141c565b6106d084848484610c14565b50505050565b60606106e1826107cb565b60006106eb610c47565b9050600081511161070b5760405180602001604052806000815250610736565b8061071584610c56565b604051602001610726929190611469565b6040516020818303038152906040525b9392505050565b6006805461074a906113e1565b80601f0160208091040260200160405190810160405280929190818152602001828054610776906113e1565b80156107c35780601f10610798576101008083540402835291602001916107c3565b820191906000526020600020905b8154815290600101906020018083116107a657829003601f168201915b505050505081565b6000818152600260205260409020546001600160a01b03166105255760405162461bcd60e51b8152602060048201526018602482015277115490cdcc8c4e881a5b9d985b1a59081d1bdad95b88125160421b604482015260640161044c565b600081815260046020526040902080546001600160a01b0319166001600160a01b038416908117909155819061085f8261059a565b6001600160a01b03167f8c5be1e5ebec7d5bd14f71427d1e84f3dd0314c0f7b2291e5b200ac8c7c3b92560405160405180910390a45050565b61069a828260405180602001604052806000815250610cf3565b60006108bd8261059a565b90506108cd816000846001610d26565b6108d68261059a565b600083815260046020908152604080832080546001600160a01b03199081169091556001600160a01b0385168085526003845282852080546000190190558785526002909352818420805490911690555192935084927fddf252ad1be2c89b69c2b068fc378daa952ba7f163c4a11628f55a4df523b3ef908390a45050565b6000806109618361059a565b9050806001600160a01b0316846001600160a01b031614806109a857506001600160a01b0380821660009081526005602090815260408083209388168352929052205460ff165b806109cc5750836001600160a01b03166109c1846103b0565b6001600160a01b0316145b949350505050565b826001600160a01b03166109e78261059a565b6001600160a01b031614610a0d5760405162461bcd60e51b815260040161044c90611498565b6001600160a01b038216610a6f5760405162461bcd60e51b8152602060048201526024808201527f4552433732313a207472616e7366657220746f20746865207a65726f206164646044820152637265737360e01b606482015260840161044c565b610a7c8383836001610d26565b826001600160a01b0316610a8f8261059a565b6001600160a01b031614610ab55760405162461bcd60e51b815260040161044c90611498565b600081815260046020908152604080832080546001600160a01b03199081169091556001600160a01b0387811680865260038552838620805460001901905590871680865283862080546001019055868652600290945282852080549092168417909155905184937fddf252ad1be2c89b69c2b068fc378daa952ba7f163c4a11628f55a4df523b3ef91a4505050565b816001600160a01b0316836001600160a01b03161415610ba75760405162461bcd60e51b815260206004820152601960248201527f4552433732313a20617070726f766520746f2063616c6c657200000000000000604482015260640161044c565b6001600160a01b03838116600081815260056020908152604080832094871680845294825291829020805460ff191686151590811790915591519182527f17307eab39ab6107e8899845ad3d59bd9653f200f220920489ca2b5937696c31910160405180910390a3505050565b610c1f8484846109d4565b610c2b84848484610dae565b6106d05760405162461bcd60e51b815260040161044c906114dd565b60606006805461032d906113e1565b60606000610c6383610ebb565b600101905060008167ffffffffffffffff811115610c8357610c836112bc565b6040519080825280601f01601f191660200182016040528015610cad576020820181803683370190505b5090508181016020015b600019016f181899199a1a9b1b9c1cb0b131b232b360811b600a86061a8153600a8504945084610ce657610ceb565b610cb7565b509392505050565b610cfd8383610f93565b610d0a6000848484610dae565b6104ed5760405162461bcd60e51b815260040161044c906114dd565b60018111156106d0576001600160a01b03841615610d6c576001600160a01b03841660009081526003602052604081208054839290610d66908490611545565b90915550505b6001600160a01b038316156106d0576001600160a01b03831660009081526003602052604081208054839290610da390849061155c565b909155505050505050565b60006001600160a01b0384163b15610eb057604051630a85bd0160e11b81526001600160a01b0385169063150b7a0290610df2903390899088908890600401611574565b602060405180830381600087803b158015610e0c57600080fd5b505af1925050508015610e3c575060408051601f3d908101601f19168201909252610e39918101906115b1565b60015b610e96573d808015610e6a576040519150601f19603f3d011682016040523d82523d6000602084013e610e6f565b606091505b508051610e8e5760405162461bcd60e51b815260040161044c906114dd565b805181602001fd5b6001600160e01b031916630a85bd0160e11b1490506109cc565b506001949350505050565b60008072184f03e93ff9f4daa797ed6e38ed64bf6a1f0160401b8310610efa5772184f03e93ff9f4daa797ed6e38ed64bf6a1f0160401b830492506040015b6d04ee2d6d415b85acef81000000008310610f26576d04ee2d6d415b85acef8100000000830492506020015b662386f26fc100008310610f4457662386f26fc10000830492506010015b6305f5e1008310610f5c576305f5e100830492506008015b6127108310610f7057612710830492506004015b60648310610f82576064830492506002015b600a83106103185760010192915050565b6001600160a01b038216610fe95760405162461bcd60e51b815260206004820181905260248201527f4552433732313a206d696e7420746f20746865207a65726f2061646472657373604482015260640161044c565b6000818152600260205260409020546001600160a01b03161561104e5760405162461bcd60e51b815260206004820152601c60248201527f4552433732313a20746f6b656e20616c7265616479206d696e74656400000000604482015260640161044c565b61105c600083836001610d26565b6000818152600260205260409020546001600160a01b0316156110c15760405162461bcd60e51b815260206004820152601c60248201527f4552433732313a20746f6b656e20616c7265616479206d696e74656400000000604482015260640161044c565b6001600160a01b038216600081815260036020908152604080832080546001019055848352600290915280822080546001600160a01b0319168417905551839291907fddf252ad1be2c89b69c2b068fc378daa952ba7f163c4a11628f55a4df523b3ef908290a45050565b6001600160e01b03198116811461052557600080fd5b60006020828403121561115457600080fd5b81356107368161112c565b60005b8381101561117a578181015183820152602001611162565b838111156106d05750506000910152565b600081518084526111a381602086016020860161115f565b601f01601f19169290920160200192915050565b602081526000610736602083018461118b565b6000602082840312156111dc57600080fd5b5035919050565b80356001600160a01b03811681146111fa57600080fd5b919050565b6000806040838503121561121257600080fd5b61121b836111e3565b946020939093013593505050565b60008060006060848603121561123e57600080fd5b611247846111e3565b9250611255602085016111e3565b9150604084013590509250925092565b60006020828403121561127757600080fd5b610736826111e3565b6000806040838503121561129357600080fd5b61129c836111e3565b9150602083013580151581146112b157600080fd5b809150509250929050565b634e487b7160e01b600052604160045260246000fd5b600080600080608085870312156112e857600080fd5b6112f1856111e3565b93506112ff602086016111e3565b925060408501359150606085013567ffffffffffffffff8082111561132357600080fd5b818701915087601f83011261133757600080fd5b813581811115611349576113496112bc565b604051601f8201601f19908116603f01168101908382118183101715611371576113716112bc565b816040528281528a602084870101111561138a57600080fd5b82602086016020830137600060208483010152809550505050505092959194509250565b600080604083850312156113c157600080fd5b6113ca836111e3565b91506113d8602084016111e3565b90509250929050565b600181811c908216806113f557607f821691505b6020821081141561141657634e487b7160e01b600052602260045260246000fd5b50919050565b6020808252602d908201527f4552433732313a2063616c6c6572206973206e6f7420746f6b656e206f776e6560408201526c1c881bdc88185c1c1c9bdd9959609a1b606082015260800190565b6000835161147b81846020880161115f565b83519083019061148f81836020880161115f565b01949350505050565b60208082526025908201527f4552433732313a207472616e736665722066726f6d20696e636f72726563742060408201526437bbb732b960d91b606082015260800190565b60208082526032908201527f4552433732313a207472616e7366657220746f206e6f6e20455243373231526560408201527131b2b4bb32b91034b6b83632b6b2b73a32b960711b606082015260800190565b634e487b7160e01b600052601160045260246000fd5b6000828210156115575761155761152f565b500390565b6000821982111561156f5761156f61152f565b500190565b6001600160a01b03858116825284166020820152604081018390526080606082018190526000906115a79083018461118b565b9695505050505050565b6000602082840312156115c357600080fd5b81516107368161112c56fea264697066735822122078912e9ad60785844a631af812fd98880b5920f4d29c7e03f0388b3b07141ce264736f6c63430008090033",
  "linkReferences": {},
  "deployedLinkReferences": {}
}