{
  "_format": "hh-sol-artifact-1",
  "contractName": "MyCollection",
  "sourceName": "contracts/MyCollection.sol",
  "abi": [
    {
      "inputs": [
        {
          "internalType": "string",
          "name": "_name",
          "type": "string"
        },
        {
          "internalType": "string",
          "name": "_symbol",
          "type": "string"
        }
      ],
      "stateMutability": "nonpayable",
      "type": "constructor"
    },
    {
      "anonymous": false,
      "inputs": [
        {
          "indexed": true,
          "internalType": "address",
          "name": "owner",
          "type": "address"
        },
        {
          "indexed": true,
          "internalType": "address",
          "name": "approved",
          "type": "address"
        },
        {
          "indexed": true,
          "internalType": "uint256",
          "name": "tokenId",
          "type": "uint256"
        }
      ],
      "name": "Approval",
      "type": "event"
    },
    {
      "anonymous": false,
      "inputs": [
        {
          "indexed": true,
          "internalType": "address",
          "name": "owner",
          "type": "address"
        },
        {
          "indexed": true,
          "internalType": "address",
          "name": "operator",
          "type": "address"
        },
        {
          "indexed": false,
          "internalType": "bool",
          "name": "approved",
          "type": "bool"
        }
      ],
      "name": "ApprovalForAll",
      "type": "event"
    },
    {
      "anonymous": false,
      "inputs": [
        {
          "indexed": true,
          "internalType": "address",
          "name": "from",
          "type": "address"
        },
        {
          "indexed": true,
          "internalType": "address",
          "name": "to",
          "type": "address"
        },
        {
          "indexed": true,
          "internalType": "uint256",
          "name": "tokenId",
          "type": "uint256"
        }
      ],
      "name": "Transfer",
      "type": "event"
    },
    {
      "inputs": [
        {
          "internalType": "address",
          "name": "to",
          "type": "address"
        },
        {
          "internalType": "uint256",
          "name": "tokenId",
          "type": "uint256"
        }
      ],
      "name": "approve",
      "outputs": [],
      "stateMutability": "nonpayable",
      "type": "function"
    },
    {
      "inputs": [
        {
          "internalType": "address",
          "name": "owner",
          "type": "address"
        }
      ],
      "name": "balanceOf",
      "outputs": [
        {
          "internalType": "uint256",
          "name": "",
          "type": "uint256"
        }
      ],
      "stateMutability": "view",
      "type": "function"
    },
    {
      "inputs": [],
      "name": "baseTokenURI",
      "outputs": [
        {
          "internalType": "string",
          "name": "",
          "type": "string"
        }
      ],
      "stateMutability": "view",
      "type": "function"
    },
    {
      "inputs": [
        {
          "internalType": "uint256",
          "name": "tokenId",
          "type": "uint256"
        }
      ],
      "name": "burn",
      "outputs": [],
      "stateMutability": "nonpayable",
      "type": "function"
    },
    {
      "inputs": [
        {
          "internalType": "uint256",
          "name": "tokenId",
          "type": "uint256"
        }
      ],
      "name": "burnoutside",
      "outputs": [],
      "stateMutability": "nonpayable",
      "type": "function"
    },
    {
      "inputs": [
        {
          "internalType": "uint256",
          "name": "tokenId",
          "type": "uint256"
        }
      ],
      "name": "getApproved",
      "outputs": [
        {
          "internalType": "address",
          "name": "",
          "type": "address"
        }
      ],
      "stateMutability": "view",
      "type": "function"
    },
    {
      "inputs": [
        {
          "internalType": "address",
          "name": "owner",
          "type": "address"
        },
        {
          "internalType": "address",
          "name": "operator",
          "type": "address"
        }
      ],
      "name": "isApprovedForAll",
      "outputs": [
        {
          "internalType": "bool",
          "name": "",
          "type": "bool"
        }
      ],
      "stateMutability": "view",
      "type": "function"
    },
    {
      "inputs": [],
      "name": "lastTokenID",
      "outputs": [
        {
          "internalType": "uint256",
          "name": "",
          "type": "uint256"
        }
      ],
      "stateMutability": "view",
      "type": "function"
    },
    {
      "inputs": [],
      "name": "mint",
      "outputs": [],
      "stateMutability": "nonpayable",
      "type": "function"
    },
    {
      "inputs": [],
      "name": "name",
      "outputs": [
        {
          "internalType": "string",
          "name": "",
          "type": "string"
        }
      ],
      "stateMutability": "view",
      "type": "function"
    },
    {
      "inputs": [],
      "name": "owner",
      "outputs": [
        {
          "internalType": "address",
          "name": "",
          "type": "address"
        }
      ],
      "stateMutability": "view",
      "type": "function"
    },
    {
      "inputs": [
        {
          "internalType": "uint256",
          "name": "tokenId",
          "type": "uint256"
        }
      ],
      "name": "ownerOf",
      "outputs": [
        {
          "internalType": "address",
          "name": "",
          "type": "address"
        }
      ],
      "stateMutability": "view",
      "type": "function"
    },
    {
      "inputs": [
        {
          "internalType": "address",
          "name": "from",
          "type": "address"
        },
        {
          "internalType": "address",
          "name": "to",
          "type": "address"
        },
        {
          "internalType": "uint256",
          "name": "tokenId",
          "type": "uint256"
        }
      ],
      "name": "safeTransferFrom",
      "outputs": [],
      "stateMutability": "nonpayable",
      "type": "function"
    },
    {
      "inputs": [
        {
          "internalType": "address",
          "name": "from",
          "type": "address"
        },
        {
          "internalType": "address",
          "name": "to",
          "type": "address"
        },
        {
          "internalType": "uint256",
          "name": "tokenId",
          "type": "uint256"
        },
        {
          "internalType": "bytes",
          "name": "data",
          "type": "bytes"
        }
      ],
      "name": "safeTransferFrom",
      "outputs": [],
      "stateMutability": "nonpayable",
      "type": "function"
    },
    {
      "inputs": [
        {
          "internalType": "address",
          "name": "operator",
          "type": "address"
        },
        {
          "internalType": "bool",
          "name": "approved",
          "type": "bool"
        }
      ],
      "name": "setApprovalForAll",
      "outputs": [],
      "stateMutability": "nonpayable",
      "type": "function"
    },
    {
      "inputs": [
        {
          "internalType": "bytes4",
          "name": "interfaceId",
          "type": "bytes4"
        }
      ],
      "name": "supportsInterface",
      "outputs": [
        {
          "internalType": "bool",
          "name": "",
          "type": "bool"
        }
      ],
      "stateMutability": "view",
      "type": "function"
    },
    {
      "inputs": [],
      "name": "symbol",
      "outputs": [
        {
          "internalType": "string",
          "name": "",
          "type": "string"
        }
      ],
      "stateMutability": "view",
      "type": "function"
    },
    {
      "inputs": [
        {
          "internalType": "uint256",
          "name": "tokenId",
          "type": "uint256"
        }
      ],
      "name": "tokenURI",
      "outputs": [
        {
          "internalType": "string",
          "name": "",
          "type": "string"
        }
      ],
      "stateMutability": "view",
      "type": "function"
    },
    {
      "inputs": [
        {
          "internalType": "address",
          "name": "from",
          "type": "address"
        },
        {
          "internalType": "address",
          "name": "to",
          "type": "address"
        },
        {
          "internalType": "uint256",
          "name": "tokenId",
          "type": "uint256"
        }
      ],
      "name": "transferFrom",
      "outputs": [],
      "stateMutability": "nonpayable",
      "type": "function"
    }
  ],
  "bytecode": "0x608060405260006008553480156200001657600080fd5b50604051620030bc380380620030bc83398181016040528101906200003c919062000287565b818181600090816200004f919062000557565b50806001908162000061919062000557565b5050506040518060400160405280601581526020017f68747470733a2f2f7777772f6d657461646174612f000000000000000000000081525060069081620000aa919062000557565b5033600960006101000a81548173ffffffffffffffffffffffffffffffffffffffff021916908373ffffffffffffffffffffffffffffffffffffffff16021790555050506200063e565b6000604051905090565b600080fd5b600080fd5b600080fd5b600080fd5b6000601f19601f8301169050919050565b7f4e487b7100000000000000000000000000000000000000000000000000000000600052604160045260246000fd5b6200015d8262000112565b810181811067ffffffffffffffff821117156200017f576200017e62000123565b5b80604052505050565b600062000194620000f4565b9050620001a2828262000152565b919050565b600067ffffffffffffffff821115620001c557620001c462000123565b5b620001d08262000112565b9050602081019050919050565b60005b83811015620001fd578082015181840152602081019050620001e0565b60008484015250505050565b6000620002206200021a84620001a7565b62000188565b9050828152602081018484840111156200023f576200023e6200010d565b5b6200024c848285620001dd565b509392505050565b600082601f8301126200026c576200026b62000108565b5b81516200027e84826020860162000209565b91505092915050565b60008060408385031215620002a157620002a0620000fe565b5b600083015167ffffffffffffffff811115620002c257620002c162000103565b5b620002d08582860162000254565b925050602083015167ffffffffffffffff811115620002f457620002f362000103565b5b620003028582860162000254565b9150509250929050565b600081519050919050565b7f4e487b7100000000000000000000000000000000000000000000000000000000600052602260045260246000fd5b600060028204905060018216806200035f57607f821691505b60208210810362000375576200037462000317565b5b50919050565b60008190508160005260206000209050919050565b60006020601f8301049050919050565b600082821b905092915050565b600060088302620003df7fffffffffffffffffffffffffffffffffffffffffffffffffffffffffffffffff82620003a0565b620003eb8683620003a0565b95508019841693508086168417925050509392505050565b6000819050919050565b6000819050919050565b600062000438620004326200042c8462000403565b6200040d565b62000403565b9050919050565b6000819050919050565b620004548362000417565b6200046c62000463826200043f565b848454620003ad565b825550505050565b600090565b6200048362000474565b6200049081848462000449565b505050565b5b81811015620004b857620004ac60008262000479565b60018101905062000496565b5050565b601f8211156200050757620004d1816200037b565b620004dc8462000390565b81016020851015620004ec578190505b62000504620004fb8562000390565b83018262000495565b50505b505050565b600082821c905092915050565b60006200052c600019846008026200050c565b1980831691505092915050565b600062000547838362000519565b9150826002028217905092915050565b62000562826200030c565b67ffffffffffffffff8111156200057e576200057d62000123565b5b6200058a825462000346565b62000597828285620004bc565b600060209050601f831160018114620005cf5760008415620005ba578287015190505b620005c6858262000539565b86555062000636565b601f198416620005df866200037b565b60005b828110156200060957848901518255600182019150602085019450602081019050620005e2565b8683101562000629578489015162000625601f89168262000519565b8355505b6001600288020188555050505b505050505050565b612a6e806200064e6000396000f3fe608060405234801561001057600080fd5b50600436106101215760003560e01c806342966c68116100ad578063a22cb46511610071578063a22cb465146102f4578063b88d4fde14610310578063c87b56dd1461032c578063d547cfb71461035c578063e985e9c51461037a57610121565b806342966c681461023c5780636352211e1461025857806370a08231146102885780638da5cb5b146102b857806395d89b41146102d657610121565b80631249c58b116100f45780631249c58b146101c0578063158f23be146101ca57806323b872dd146101e65780633521bd7e1461020257806342842e0e1461022057610121565b806301ffc9a71461012657806306fdde0314610156578063081812fc14610174578063095ea7b3146101a4575b600080fd5b610140600480360381019061013b9190611cd3565b6103aa565b60405161014d9190611d1b565b60405180910390f35b61015e61048c565b60405161016b9190611dc6565b60405180910390f35b61018e60048036038101906101899190611e1e565b61051e565b60405161019b9190611e8c565b60405180910390f35b6101be60048036038101906101b99190611ed3565b610564565b005b6101c861067b565b005b6101e460048036038101906101df9190611e1e565b6106a7565b005b61020060048036038101906101fb9190611f13565b6106b3565b005b61020a610713565b6040516102179190611f75565b60405180910390f35b61023a60048036038101906102359190611f13565b610719565b005b61025660048036038101906102519190611e1e565b610739565b005b610272600480360381019061026d9190611e1e565b610795565b60405161027f9190611e8c565b60405180910390f35b6102a2600480360381019061029d9190611f90565b61081b565b6040516102af9190611f75565b60405180910390f35b6102c06108d2565b6040516102cd9190611e8c565b60405180910390f35b6102de6108f8565b6040516102eb9190611dc6565b60405180910390f35b61030e60048036038101906103099190611fe9565b61098a565b005b61032a6004803603810190610325919061215e565b6109a0565b005b61034660048036038101906103419190611e1e565b610a02565b6040516103539190611dc6565b60405180910390f35b610364610a6a565b6040516103719190611dc6565b60405180910390f35b610394600480360381019061038f91906121e1565b610af8565b6040516103a19190611d1b565b60405180910390f35b60007f80ac58cd000000000000000000000000000000000000000000000000000000007bffffffffffffffffffffffffffffffffffffffffffffffffffffffff1916827bffffffffffffffffffffffffffffffffffffffffffffffffffffffff1916148061047557507f5b5e139f000000000000000000000000000000000000000000000000000000007bffffffffffffffffffffffffffffffffffffffffffffffffffffffff1916827bffffffffffffffffffffffffffffffffffffffffffffffffffffffff1916145b80610485575061048482610b8c565b5b9050919050565b60606000805461049b90612250565b80601f01602080910402602001604051908101604052809291908181526020018280546104c790612250565b80156105145780601f106104e957610100808354040283529160200191610514565b820191906000526020600020905b8154815290600101906020018083116104f757829003601f168201915b5050505050905090565b600061052982610bf6565b6004600083815260200190815260200160002060009054906101000a900473ffffffffffffffffffffffffffffffffffffffff169050919050565b600061056f82610795565b90508073ffffffffffffffffffffffffffffffffffffffff168373ffffffffffffffffffffffffffffffffffffffff16036105df576040517f08c379a00000000000000000000000000000000000000000000000000000000081526004016105d6906122f3565b60405180910390fd5b8073ffffffffffffffffffffffffffffffffffffffff166105fe610c41565b73ffffffffffffffffffffffffffffffffffffffff16148061062d575061062c81610627610c41565b610af8565b5b61066c576040517f08c379a000000000000000000000000000000000000000000000000000000000815260040161066390612385565b60405180910390fd5b6106768383610c49565b505050565b6106856007610d02565b60006106916007610d18565b905061069d3382610d26565b8060088190555050565b6106b081610d44565b50565b6106c46106be610c41565b82610e92565b610703576040517f08c379a00000000000000000000000000000000000000000000000000000000081526004016106fa90612417565b60405180910390fd5b61070e838383610f27565b505050565b60085481565b610734838383604051806020016040528060008152506109a0565b505050565b61074a610744610c41565b82610e92565b610789576040517f08c379a000000000000000000000000000000000000000000000000000000000815260040161078090612417565b60405180910390fd5b61079281610d44565b50565b6000806107a183611220565b9050600073ffffffffffffffffffffffffffffffffffffffff168173ffffffffffffffffffffffffffffffffffffffff1603610812576040517f08c379a000000000000000000000000000000000000000000000000000000000815260040161080990612483565b60405180910390fd5b80915050919050565b60008073ffffffffffffffffffffffffffffffffffffffff168273ffffffffffffffffffffffffffffffffffffffff160361088b576040517f08c379a000000000000000000000000000000000000000000000000000000000815260040161088290612515565b60405180910390fd5b600360008373ffffffffffffffffffffffffffffffffffffffff1673ffffffffffffffffffffffffffffffffffffffff168152602001908152602001600020549050919050565b600960009054906101000a900473ffffffffffffffffffffffffffffffffffffffff1681565b60606001805461090790612250565b80601f016020809104026020016040519081016040528092919081815260200182805461093390612250565b80156109805780601f1061095557610100808354040283529160200191610980565b820191906000526020600020905b81548152906001019060200180831161096357829003601f168201915b5050505050905090565b61099c610995610c41565b838361125d565b5050565b6109b16109ab610c41565b83610e92565b6109f0576040517f08c379a00000000000000000000000000000000000000000000000000000000081526004016109e790612417565b60405180910390fd5b6109fc848484846113c9565b50505050565b6060610a0d82610bf6565b6000610a17611425565b90506000815111610a375760405180602001604052806000815250610a62565b80610a41846114b7565b604051602001610a52929190612571565b6040516020818303038152906040525b915050919050565b60068054610a7790612250565b80601f0160208091040260200160405190810160405280929190818152602001828054610aa390612250565b8015610af05780601f10610ac557610100808354040283529160200191610af0565b820191906000526020600020905b815481529060010190602001808311610ad357829003601f168201915b505050505081565b6000600560008473ffffffffffffffffffffffffffffffffffffffff1673ffffffffffffffffffffffffffffffffffffffff16815260200190815260200160002060008373ffffffffffffffffffffffffffffffffffffffff1673ffffffffffffffffffffffffffffffffffffffff16815260200190815260200160002060009054906101000a900460ff16905092915050565b60007f01ffc9a7000000000000000000000000000000000000000000000000000000007bffffffffffffffffffffffffffffffffffffffffffffffffffffffff1916827bffffffffffffffffffffffffffffffffffffffffffffffffffffffff1916149050919050565b610bff81611585565b610c3e576040517f08c379a0000000000000000000000000000000000000000000000000000000008152600401610c3590612483565b60405180910390fd5b50565b600033905090565b816004600083815260200190815260200160002060006101000a81548173ffffffffffffffffffffffffffffffffffffffff021916908373ffffffffffffffffffffffffffffffffffffffff160217905550808273ffffffffffffffffffffffffffffffffffffffff16610cbc83610795565b73ffffffffffffffffffffffffffffffffffffffff167f8c5be1e5ebec7d5bd14f71427d1e84f3dd0314c0f7b2291e5b200ac8c7c3b92560405160405180910390a45050565b6001816000016000828254019250508190555050565b600081600001549050919050565b610d408282604051806020016040528060008152506115c6565b5050565b6000610d4f82610795565b9050610d5f816000846001611621565b610d6882610795565b90506004600083815260200190815260200160002060006101000a81549073ffffffffffffffffffffffffffffffffffffffff02191690556001600360008373ffffffffffffffffffffffffffffffffffffffff1673ffffffffffffffffffffffffffffffffffffffff168152602001908152602001600020600082825403925050819055506002600083815260200190815260200160002060006101000a81549073ffffffffffffffffffffffffffffffffffffffff021916905581600073ffffffffffffffffffffffffffffffffffffffff168273ffffffffffffffffffffffffffffffffffffffff167fddf252ad1be2c89b69c2b068fc378daa952ba7f163c4a11628f55a4df523b3ef60405160405180910390a4610e8e816000846001611747565b5050565b600080610e9e83610795565b90508073ffffffffffffffffffffffffffffffffffffffff168473ffffffffffffffffffffffffffffffffffffffff161480610ee05750610edf8185610af8565b5b80610f1e57508373ffffffffffffffffffffffffffffffffffffffff16610f068461051e565b73ffffffffffffffffffffffffffffffffffffffff16145b91505092915050565b8273ffffffffffffffffffffffffffffffffffffffff16610f4782610795565b73ffffffffffffffffffffffffffffffffffffffff1614610f9d576040517f08c379a0000000000000000000000000000000000000000000000000000000008152600401610f9490612607565b60405180910390fd5b600073ffffffffffffffffffffffffffffffffffffffff168273ffffffffffffffffffffffffffffffffffffffff160361100c576040517f08c379a000000000000000000000000000000000000000000000000000000000815260040161100390612699565b60405180910390fd5b6110198383836001611621565b8273ffffffffffffffffffffffffffffffffffffffff1661103982610795565b73ffffffffffffffffffffffffffffffffffffffff161461108f576040517f08c379a000000000000000000000000000000000000000000000000000000000815260040161108690612607565b60405180910390fd5b6004600082815260200190815260200160002060006101000a81549073ffffffffffffffffffffffffffffffffffffffff02191690556001600360008573ffffffffffffffffffffffffffffffffffffffff1673ffffffffffffffffffffffffffffffffffffffff168152602001908152602001600020600082825403925050819055506001600360008473ffffffffffffffffffffffffffffffffffffffff1673ffffffffffffffffffffffffffffffffffffffff16815260200190815260200160002060008282540192505081905550816002600083815260200190815260200160002060006101000a81548173ffffffffffffffffffffffffffffffffffffffff021916908373ffffffffffffffffffffffffffffffffffffffff160217905550808273ffffffffffffffffffffffffffffffffffffffff168473ffffffffffffffffffffffffffffffffffffffff167fddf252ad1be2c89b69c2b068fc378daa952ba7f163c4a11628f55a4df523b3ef60405160405180910390a461121b8383836001611747565b505050565b60006002600083815260200190815260200160002060009054906101000a900473ffffffffffffffffffffffffffffffffffffffff169050919050565b8173ffffffffffffffffffffffffffffffffffffffff168373ffffffffffffffffffffffffffffffffffffffff16036112cb576040517f08c379a00000000000000000000000000000000000000000000000000000000081526004016112c290612705565b60405180910390fd5b80600560008573ffffffffffffffffffffffffffffffffffffffff1673ffffffffffffffffffffffffffffffffffffffff16815260200190815260200160002060008473ffffffffffffffffffffffffffffffffffffffff1673ffffffffffffffffffffffffffffffffffffffff16815260200190815260200160002060006101000a81548160ff0219169083151502179055508173ffffffffffffffffffffffffffffffffffffffff168373ffffffffffffffffffffffffffffffffffffffff167f17307eab39ab6107e8899845ad3d59bd9653f200f220920489ca2b5937696c31836040516113bc9190611d1b565b60405180910390a3505050565b6113d4848484610f27565b6113e08484848461174d565b61141f576040517f08c379a000000000000000000000000000000000000000000000000000000000815260040161141690612797565b60405180910390fd5b50505050565b60606006805461143490612250565b80601f016020809104026020016040519081016040528092919081815260200182805461146090612250565b80156114ad5780601f10611482576101008083540402835291602001916114ad565b820191906000526020600020905b81548152906001019060200180831161149057829003601f168201915b5050505050905090565b6060600060016114c6846118d4565b01905060008167ffffffffffffffff8111156114e5576114e4612033565b5b6040519080825280601f01601f1916602001820160405280156115175781602001600182028036833780820191505090505b509050600082602001820190505b60011561157a578080600190039150507f3031323334353637383961626364656600000000000000000000000000000000600a86061a8153600a858161156e5761156d6127b7565b5b04945060008503611525575b819350505050919050565b60008073ffffffffffffffffffffffffffffffffffffffff166115a783611220565b73ffffffffffffffffffffffffffffffffffffffff1614159050919050565b6115d08383611a27565b6115dd600084848461174d565b61161c576040517f08c379a000000000000000000000000000000000000000000000000000000000815260040161161390612797565b60405180910390fd5b505050565b600181111561174157600073ffffffffffffffffffffffffffffffffffffffff168473ffffffffffffffffffffffffffffffffffffffff16146116b55780600360008673ffffffffffffffffffffffffffffffffffffffff1673ffffffffffffffffffffffffffffffffffffffff16815260200190815260200160002060008282546116ad9190612815565b925050819055505b600073ffffffffffffffffffffffffffffffffffffffff168373ffffffffffffffffffffffffffffffffffffffff16146117405780600360008573ffffffffffffffffffffffffffffffffffffffff1673ffffffffffffffffffffffffffffffffffffffff16815260200190815260200160002060008282546117389190612849565b925050819055505b5b50505050565b50505050565b600061176e8473ffffffffffffffffffffffffffffffffffffffff16611c44565b156118c7578373ffffffffffffffffffffffffffffffffffffffff1663150b7a02611797610c41565b8786866040518563ffffffff1660e01b81526004016117b994939291906128d2565b6020604051808303816000875af19250505080156117f557506040513d601f19601f820116820180604052508101906117f29190612933565b60015b611877573d8060008114611825576040519150601f19603f3d011682016040523d82523d6000602084013e61182a565b606091505b50600081510361186f576040517f08c379a000000000000000000000000000000000000000000000000000000000815260040161186690612797565b60405180910390fd5b805181602001fd5b63150b7a0260e01b7bffffffffffffffffffffffffffffffffffffffffffffffffffffffff1916817bffffffffffffffffffffffffffffffffffffffffffffffffffffffff1916149150506118cc565b600190505b949350505050565b600080600090507a184f03e93ff9f4daa797ed6e38ed64bf6a1f0100000000000000008310611932577a184f03e93ff9f4daa797ed6e38ed64bf6a1f0100000000000000008381611928576119276127b7565b5b0492506040810190505b6d04ee2d6d415b85acef8100000000831061196f576d04ee2d6d415b85acef81000000008381611965576119646127b7565b5b0492506020810190505b662386f26fc10000831061199e57662386f26fc100008381611994576119936127b7565b5b0492506010810190505b6305f5e10083106119c7576305f5e10083816119bd576119bc6127b7565b5b0492506008810190505b61271083106119ec5761271083816119e2576119e16127b7565b5b0492506004810190505b60648310611a0f5760648381611a0557611a046127b7565b5b0492506002810190505b600a8310611a1e576001810190505b80915050919050565b600073ffffffffffffffffffffffffffffffffffffffff168273ffffffffffffffffffffffffffffffffffffffff1603611a96576040517f08c379a0000000000000000000000000000000000000000000000000000000008152600401611a8d906129ac565b60405180910390fd5b611a9f81611585565b15611adf576040517f08c379a0000000000000000000000000000000000000000000000000000000008152600401611ad690612a18565b60405180910390fd5b611aed600083836001611621565b611af681611585565b15611b36576040517f08c379a0000000000000000000000000000000000000000000000000000000008152600401611b2d90612a18565b60405180910390fd5b6001600360008473ffffffffffffffffffffffffffffffffffffffff1673ffffffffffffffffffffffffffffffffffffffff16815260200190815260200160002060008282540192505081905550816002600083815260200190815260200160002060006101000a81548173ffffffffffffffffffffffffffffffffffffffff021916908373ffffffffffffffffffffffffffffffffffffffff160217905550808273ffffffffffffffffffffffffffffffffffffffff16600073ffffffffffffffffffffffffffffffffffffffff167fddf252ad1be2c89b69c2b068fc378daa952ba7f163c4a11628f55a4df523b3ef60405160405180910390a4611c40600083836001611747565b5050565b6000808273ffffffffffffffffffffffffffffffffffffffff163b119050919050565b6000604051905090565b600080fd5b600080fd5b60007fffffffff0000000000000000000000000000000000000000000000000000000082169050919050565b611cb081611c7b565b8114611cbb57600080fd5b50565b600081359050611ccd81611ca7565b92915050565b600060208284031215611ce957611ce8611c71565b5b6000611cf784828501611cbe565b91505092915050565b60008115159050919050565b611d1581611d00565b82525050565b6000602082019050611d306000830184611d0c565b92915050565b600081519050919050565b600082825260208201905092915050565b60005b83811015611d70578082015181840152602081019050611d55565b60008484015250505050565b6000601f19601f8301169050919050565b6000611d9882611d36565b611da28185611d41565b9350611db2818560208601611d52565b611dbb81611d7c565b840191505092915050565b60006020820190508181036000830152611de08184611d8d565b905092915050565b6000819050919050565b611dfb81611de8565b8114611e0657600080fd5b50565b600081359050611e1881611df2565b92915050565b600060208284031215611e3457611e33611c71565b5b6000611e4284828501611e09565b91505092915050565b600073ffffffffffffffffffffffffffffffffffffffff82169050919050565b6000611e7682611e4b565b9050919050565b611e8681611e6b565b82525050565b6000602082019050611ea16000830184611e7d565b92915050565b611eb081611e6b565b8114611ebb57600080fd5b50565b600081359050611ecd81611ea7565b92915050565b60008060408385031215611eea57611ee9611c71565b5b6000611ef885828601611ebe565b9250506020611f0985828601611e09565b9150509250929050565b600080600060608486031215611f2c57611f2b611c71565b5b6000611f3a86828701611ebe565b9350506020611f4b86828701611ebe565b9250506040611f5c86828701611e09565b9150509250925092565b611f6f81611de8565b82525050565b6000602082019050611f8a6000830184611f66565b92915050565b600060208284031215611fa657611fa5611c71565b5b6000611fb484828501611ebe565b91505092915050565b611fc681611d00565b8114611fd157600080fd5b50565b600081359050611fe381611fbd565b92915050565b6000806040838503121561200057611fff611c71565b5b600061200e85828601611ebe565b925050602061201f85828601611fd4565b9150509250929050565b600080fd5b600080fd5b7f4e487b7100000000000000000000000000000000000000000000000000000000600052604160045260246000fd5b61206b82611d7c565b810181811067ffffffffffffffff8211171561208a57612089612033565b5b80604052505050565b600061209d611c67565b90506120a98282612062565b919050565b600067ffffffffffffffff8211156120c9576120c8612033565b5b6120d282611d7c565b9050602081019050919050565b82818337600083830152505050565b60006121016120fc846120ae565b612093565b90508281526020810184848401111561211d5761211c61202e565b5b6121288482856120df565b509392505050565b600082601f83011261214557612144612029565b5b81356121558482602086016120ee565b91505092915050565b6000806000806080858703121561217857612177611c71565b5b600061218687828801611ebe565b945050602061219787828801611ebe565b93505060406121a887828801611e09565b925050606085013567ffffffffffffffff8111156121c9576121c8611c76565b5b6121d587828801612130565b91505092959194509250565b600080604083850312156121f8576121f7611c71565b5b600061220685828601611ebe565b925050602061221785828601611ebe565b9150509250929050565b7f4e487b7100000000000000000000000000000000000000000000000000000000600052602260045260246000fd5b6000600282049050600182168061226857607f821691505b60208210810361227b5761227a612221565b5b50919050565b7f4552433732313a20617070726f76616c20746f2063757272656e74206f776e6560008201527f7200000000000000000000000000000000000000000000000000000000000000602082015250565b60006122dd602183611d41565b91506122e882612281565b604082019050919050565b6000602082019050818103600083015261230c816122d0565b9050919050565b7f4552433732313a20617070726f76652063616c6c6572206973206e6f7420746f60008201527f6b656e206f776e6572206f7220617070726f76656420666f7220616c6c000000602082015250565b600061236f603d83611d41565b915061237a82612313565b604082019050919050565b6000602082019050818103600083015261239e81612362565b9050919050565b7f4552433732313a2063616c6c6572206973206e6f7420746f6b656e206f776e6560008201527f72206f7220617070726f76656400000000000000000000000000000000000000602082015250565b6000612401602d83611d41565b915061240c826123a5565b604082019050919050565b60006020820190508181036000830152612430816123f4565b9050919050565b7f4552433732313a20696e76616c696420746f6b656e2049440000000000000000600082015250565b600061246d601883611d41565b915061247882612437565b602082019050919050565b6000602082019050818103600083015261249c81612460565b9050919050565b7f4552433732313a2061646472657373207a65726f206973206e6f74206120766160008201527f6c6964206f776e65720000000000000000000000000000000000000000000000602082015250565b60006124ff602983611d41565b915061250a826124a3565b604082019050919050565b6000602082019050818103600083015261252e816124f2565b9050919050565b600081905092915050565b600061254b82611d36565b6125558185612535565b9350612565818560208601611d52565b80840191505092915050565b600061257d8285612540565b91506125898284612540565b91508190509392505050565b7f4552433732313a207472616e736665722066726f6d20696e636f72726563742060008201527f6f776e6572000000000000000000000000000000000000000000000000000000602082015250565b60006125f1602583611d41565b91506125fc82612595565b604082019050919050565b60006020820190508181036000830152612620816125e4565b9050919050565b7f4552433732313a207472616e7366657220746f20746865207a65726f2061646460008201527f7265737300000000000000000000000000000000000000000000000000000000602082015250565b6000612683602483611d41565b915061268e82612627565b604082019050919050565b600060208201905081810360008301526126b281612676565b9050919050565b7f4552433732313a20617070726f766520746f2063616c6c657200000000000000600082015250565b60006126ef601983611d41565b91506126fa826126b9565b602082019050919050565b6000602082019050818103600083015261271e816126e2565b9050919050565b7f4552433732313a207472616e7366657220746f206e6f6e20455243373231526560008201527f63656976657220696d706c656d656e7465720000000000000000000000000000602082015250565b6000612781603283611d41565b915061278c82612725565b604082019050919050565b600060208201905081810360008301526127b081612774565b9050919050565b7f4e487b7100000000000000000000000000000000000000000000000000000000600052601260045260246000fd5b7f4e487b7100000000000000000000000000000000000000000000000000000000600052601160045260246000fd5b600061282082611de8565b915061282b83611de8565b9250828203905081811115612843576128426127e6565b5b92915050565b600061285482611de8565b915061285f83611de8565b9250828201905080821115612877576128766127e6565b5b92915050565b600081519050919050565b600082825260208201905092915050565b60006128a48261287d565b6128ae8185612888565b93506128be818560208601611d52565b6128c781611d7c565b840191505092915050565b60006080820190506128e76000830187611e7d565b6128f46020830186611e7d565b6129016040830185611f66565b81810360608301526129138184612899565b905095945050505050565b60008151905061292d81611ca7565b92915050565b60006020828403121561294957612948611c71565b5b60006129578482850161291e565b91505092915050565b7f4552433732313a206d696e7420746f20746865207a65726f2061646472657373600082015250565b6000612996602083611d41565b91506129a182612960565b602082019050919050565b600060208201905081810360008301526129c581612989565b9050919050565b7f4552433732313a20746f6b656e20616c7265616479206d696e74656400000000600082015250565b6000612a02601c83611d41565b9150612a0d826129cc565b602082019050919050565b60006020820190508181036000830152612a31816129f5565b905091905056fea2646970667358221220307c2e167919e8b863bff90ba663dfd6ae73b75f8a16a0e64985e94e6813f6e564736f6c63430008110033",
  "linkReferences": {},
  "deployedLinkReferences": {}
}